:020000040800F2
:10000000000002207D320008F5280008FD280008C5
:10001000052900080D290008152900080000000026
:100020000000000000000000000000001D29000882
:100030002B29000800000000392900084729000882
:10004000CD320008CD320008CD320008CD32000894
:10005000CD320008CD320008CD320008CD32000884
:1000600053290008CD320008CD320008CD320008F7
:10007000CD320008CD320008CD320008CD32000864
:10008000CD320008CD320008CD320008000000005B
:10009000000000000000000000000000CD32000859
:1000A000CD320008CD320008CD320008CD32000834
:1000B000CD320008CD32000861290008CD32000899
:1000C000CD320008CD320008CD320008CD32000814
:1000D000CD32000875290008CD320008000000006C
:1000E000CD320008CD320008CD32000800000000FB
:1000F000000000000000000000000000CD320008F9
:1001000000000000CD320008CD320008CD320008DA
:1001100000000000000000000000000000000000DF
:10012000CD320008CD32000889290008CD32000800
:10013000CD320008000000000000000000000000B8
:10014000000000000000000000000000CD320008A8
:10015000CD320008CD3200089D290008CD320008BC
:10016000CD320008CD320008000000000000000081
:10017000000000000000000000000000000000007F
:1001800000000000CD320008000000000000000068
:08019000CD320008CD32000859
:1001A00010B5054C237833B9044B13B10448AFF3B1
:1001B00000800123237010BDFC010020000000001E
:1001C0009CBC000808B5034B1BB103490348AFF3BF
:1001D000008008BD00000000000200209CBC000858
:1001E00001F0FF01102A2BDB10F0070F08D010F8E8
:1001F000013B013A8B422DD010F0070F42B3F6D1EC
:10020000F0B441EA012141EA014122F007047FF004
:1002100000070023F0E80256083C85EA010586EA5B
:10022000010685FA47F5A3FA87F586FA47F6A5FA97
:1002300087F68EB9EED1F0BC01F0FF0102F00702A3
:1002400032B110F8013B013A83EA010313B1F8D14E
:100250000020704701387047002D06BF354603382F
:10026000073815F0010F07D1013015F4807F02BF68
:10027000013015F4C03F0130F0BC0138704700BFB9
:10028000034613F8012B002AFBD1181A01387047D6
:1002900081F0004102E000BF83F0004330B54FEA37
:1002A00041044FEA430594EA050F08BF90EA020FA4
:1002B0001FBF54EA000C55EA020C7FEA645C7FEA37
:1002C000655C00F0E2804FEA5454D4EB5555B8BF5A
:1002D0006D420CDD2C4480EA020281EA030382EACB
:1002E000000083EA010180EA020281EA0303362D5D
:1002F00088BF30BD11F0004F4FEA01314FF4801C30
:100300004CEA113102D0404261EB410113F0004F41
:100310004FEA03334CEA133302D0524263EB4303F8
:1003200094EA050F00F0A780A4F10104D5F1200E96
:100330000DDB02FA0EFC22FA05F2801841F10001F1
:1003400003FA0EF2801843FA05F359410EE0A5F1C5
:1003500020050EF1200E012A03FA0EFC28BF4CF0F6
:10036000020C43FA05F3C01851EBE37101F00045AC
:1003700007D54FF0000EDCF1000C7EEB00006EEBB9
:100380000101B1F5801F1BD3B1F5001F0CD3490843
:100390005FEA30004FEA3C0C04F101044FEA44529A
:1003A00012F5800F80F09A80BCF1004F08BF5FEA21
:1003B000500C50F1000041EB045141EA050130BD01
:1003C0005FEA4C0C404141EB0101013C28BFB1F513
:1003D000801FE9D291F0000F04BF01460020B1FA5E
:1003E00081F308BF2033A3F10B03B3F120020CDA31
:1003F0000C3208DD02F1140CC2F10C0201FA0CF00F
:1004000021FA02F10CE002F11402D8BFC2F1200C73
:1004100001FA02F120FA0CFCDCBF41EA0C01904029
:10042000E41AA2BF01EB0451294330BD6FEA040472
:100430001F3C1CDA0C340EDC04F11404C4F120025D
:1004400020FA04F001FA02F340EA030021FA04F36F
:1004500045EA030130BDC4F10C04C4F1200220FAC6
:1004600002F001FA04F340EA0300294630BD21FA04
:1004700004F0294630BD94F0000F83F4801306BFCA
:1004800081F480110134013D4EE77FEA645C18BFBE
:100490007FEA655C29D094EA050F08BF90EA020F55
:1004A00005D054EA000C04BF1946104630BD91EA4D
:1004B000030F1EBF0021002030BD5FEA545C05D150
:1004C0004000494128BF41F0004130BD14F580048F
:1004D0003CBF01F5801130BD01F0004545F0FE4103
:1004E00041F470014FF0000030BD7FEA645C1ABF38
:1004F000194610467FEA655C1CBF0B46024650EA6F
:10050000013406BF52EA033591EA030F41F400219A
:1005100030BD00BF90F0000F04BF0021704730B520
:100520004FF4806404F132044FF000054FF00001F5
:1005300050E700BF90F0000F04BF0021704730B5B6
:100540004FF4806404F1320410F0004548BF40428B
:100550004FF000013EE700BF42004FEAE2014FEAE0
:1005600031014FEA02701FBF12F07F4393F07F4FBB
:1005700081F06051704732F07F4208BF704793F0BE
:100580007F4F04BF41F40021704730B54FF46074D1
:1005900001F0004521F000411CE700BF50EA0102D4
:1005A00008BF704730B54FF000050AE050EA01027D
:1005B00008BF704730B511F0004502D5404261EBED
:1005C00041014FF4806404F132045FEA915C3FF42E
:1005D000D8AE4FF003025FEADC0C18BF03325FEACB
:1005E000DC0C18BF033202EBDC02C2F1200300FA7C
:1005F00003FC20FA02F001FA03FE40EA0E0021FAA1
:1006000002F11444BDE600BF70B54FF0FF0C4CF48E
:10061000E06C1CEA11541DBF1CEA135594EA0C0F40
:1006200095EA0C0F00F0DEF82C4481EA030621EA7B
:100630004C5123EA4C5350EA013518BF52EA0335B6
:1006400041F4801143F4801338D0A0FB02CE4FF068
:100650000005E1FB02E506F00042E0FB03E54FF098
:100660000006E1FB03569CF0000F18BF4EF0010E90
:10067000A4F1FF04B6F5007F64F5407404D25FEA8C
:100680004E0E6D4146EB060642EAC62141EA55513F
:100690004FEAC52040EA5E504FEACE2EB4F1FD0C81
:1006A00088BFBCF5E06F1ED8BEF1004F08BF5FEAFF
:1006B000500E50F1000041EB045170BD06F00046B1
:1006C00046EA010140EA020081EA0301B4EB5C045E
:1006D000C2BFD4EB0C0541EA045170BD41F4801156
:1006E0004FF0000E013C00F3AB8014F1360FDEBF7B
:1006F000002001F0004170BDC4F10004203C35DA57
:100700000C341BDC04F11404C4F1200500FA05F3D9
:1007100020FA04F001FA05F240EA020001F000427A
:1007200021F0004110EBD37021FA04F642EB0601F0
:100730005EEA430E08BF20EAD37070BDC4F10C041A
:10074000C4F1200500FA04F320FA05F001FA04F2DE
:1007500040EA020001F0004110EBD37041F10001CA
:100760005EEA430E08BF20EAD37070BDC4F12005D5
:1007700000FA05F24EEA020E20FA04F301FA05F23D
:1007800043EA020321FA04F001F0004121FA04F2E5
:1007900020EA020000EBD3705EEA430E08BF20EAB5
:1007A000D37070BD94F0000F0FD101F000464000EF
:1007B00041EB010111F4801F08BF013CF7D041EA71
:1007C000060195F0000F18BF704703F00046520075
:1007D00043EB030313F4801F08BF013DF7D043EA46
:1007E0000603704794EA0C0F0CEA135518BF95EAFC
:1007F0000C0F0CD050EA410618BF52EA4306D1D183
:1008000081EA030101F000414FF0000070BD50EAA1
:10081000410606BF1046194652EA430619D094EA2B
:100820000C0F02D150EA013613D195EA0C0F05D115
:1008300052EA03361CBF104619460AD181EA030169
:1008400001F0004141F0FE4141F470014FF0000021
:1008500070BD41F0FE4141F4780170BD70B54FF0BC
:10086000FF0C4CF4E06C1CEA11541DBF1CEA13553C
:1008700094EA0C0F95EA0C0F00F0A7F8A4EB05041E
:1008800081EA030E52EA03354FEA013100F0888015
:100890004FEA03334FF0805545EA131343EA1263DE
:1008A0004FEA022245EA111545EA10654FEA002693
:1008B0000EF000419D4208BF964244F1FD0404F54C
:1008C000407402D25B084FEA3202B61A65EB0305A8
:1008D0005B084FEA32024FF480104FF4002CB6EB65
:1008E000020E75EB030E22BFB61A754640EA0C00E5
:1008F0005B084FEA3202B6EB020E75EB030E22BF25
:10090000B61A754640EA5C005B084FEA3202B6EB65
:10091000020E75EB030E22BFB61A754640EA9C0024
:100920005B084FEA3202B6EB020E75EB030E22BFF4
:10093000B61A754640EADC0055EA060E18D04FEAB2
:10094000051545EA16754FEA06164FEAC30343EA52
:1009500052734FEAC2025FEA1C1CC0D111F4801F1F
:100960000BD141EA00014FF000004FF0004CB6E718
:1009700011F4801F04BF01430020B4F1FD0C88BFB7
:10098000BCF5E06F3FF6AFAEB5EB030C04BFB6EBC2
:10099000020C5FEA500C50F1000041EB045170BDB5
:1009A0000EF0004E4EEA113114EB5C04C2BFD4EBE2
:1009B0000C0541EA045170BD41F480114FF0000E66
:1009C000013C90E645EA060E8DE60CEA135594EAE2
:1009D0000C0F08BF95EA0C0F3FF43BAF94EA0C0FE5
:1009E0000AD150EA01347FF434AF95EA0C0F7FF45A
:1009F00025AF104619462CE795EA0C0F06D152EAAE
:100A000003353FF4FDAE1046194622E750EA410691
:100A100018BF52EA43067FF4C5AE50EA41047FF4A2
:100A20000DAF52EA43057FF4EBAE12E74FF0FF3C07
:100A300006E000BF4FF0010C02E000BF4FF0010CD8
:100A40004DF804CD4FEA410C7FEA6C5C4FEA430C51
:100A500018BF7FEA6C5C1BD001B050EA410C0CBFA0
:100A600052EA430C91EA030F02BF90EA020F002002
:100A7000704710F1000F91EA030F58BF994208BF69
:100A800090422CBFD8176FEAE37040F00100704726
:100A90004FEA410C7FEA6C5C02D150EA013C07D17D
:100AA0004FEA430C7FEA6C5CD6D152EA033CD3D0C8
:100AB0005DF8040B704700BF8446104662468C46C2
:100AC0001946634600E000BF01B5FFF7B7FF0028F5
:100AD00048BF10F1000F01BD4DF808EDFFF7F4FF1E
:100AE0000CBF012000205DF808FB00BF4DF808EDA9
:100AF000FFF7EAFF34BF012000205DF808FB00BFCC
:100B00004DF808EDFFF7E0FF94BF012000205DF8ED
:100B100008FB00BF4DF808EDFFF7CEFF94BF0120A2
:100B200000205DF808FB00BF4DF808EDFFF7C4FF9B
:100B300034BF012000205DF808FB00BF4FEA410CE4
:100B40007FEA6C5C02D150EA013C0AD14FEA430CC7
:100B50007FEA6C5C02D152EA033C02D14FF0000004
:100B600070474FF0010070474FEA410212F5001242
:100B700015D211D56FF47873B3EB625212D94FEAE4
:100B8000C12343F0004343EA505311F0004F23FACE
:100B900002F018BF404270474FF00000704750EA23
:100BA000013005D111F0004008BF6FF000407047E0
:100BB0004FF00000704700BF53B94AB9002908BF81
:100BC00000281CBF4FF0FF314FF0FF3000F088B914
:100BD000ADF1080C6DE904CE00F006F8DDF804E094
:100BE000DDE9022304B070472DE9F047089D0F4668
:100BF00004468C46002B48D18A42164661D9B2FA87
:100C000082F34BB1C3F1200201FA03FC20FA02F295
:100C10009E4042EA0C0C9C404FEA164EB7B2BCFB19
:100C2000FEF1220C0EFB11CC42EA0C4201FB07F054
:100C3000904209D9B21801F1FF3C80F0EE80904259
:100C400040F2EB8002393244121AA4B2B2FBFEF039
:100C50000EFB102244EA024400FB07F7A74209D921
:100C6000341900F1FF3280F0DA80A74240F2D780D9
:100C70003444023840EA0140E41B00211DB1DC404D
:100C80000023C5E90043BDE8F0878B4206D90DB1CA
:100C9000C5E9000100210846BDE8F087B3FA83F1F9
:100CA000002948D1BB4202D3824200F20781841A54
:100CB00067EB030201209446002DE4D0C5E9004C07
:100CC000E1E7002A00F09280B2FA82F3002B40F0B4
:100CD000A8808A1A4FEA164E1FFA86FC0121200CC2
:100CE000B2FBFEF70EFB172240EA02420CFB07F0B4
:100CF000904207D9B21807F1FF3802D2904200F2B1
:100D0000E2804746121AA4B2B2FBFEF00EFB10229C
:100D100044EA02440CFB00FCA44507D9341900F155
:100D2000FF3202D2A44500F2CB801046A4EB0C04A3
:100D300040EA0740A2E7C1F120068B4022FA06FCF8
:100D40004CEA030C07FA01F420FA06F3F7404FEAE5
:100D50001C49234300FA01F81FFA8CFEB7FBF9F097
:100D60001C0C09FB107744EA074400FB0EF7A7426E
:100D700002FA01F20AD91CEB040400F1FF3A80F0F8
:100D80009B80A74240F2988002386444E41B9FB2E3
:100D9000B4FBF9F309FB134447EA044403FB0EFEDA
:100DA000A64509D91CEB040403F1FF3780F08280CB
:100DB000A6457FD9023B644443EA0040A4EB0E04FD
:100DC000A0FB02E7BC427346B94663D360D05DB175
:100DD000B8EB030264EB090404FA06F622FA01F305
:100DE0001E43CC40C5E9006400214CE76208480876
:100DF00042EAC1710B0C43EA00438AB242EA034261
:100E0000B3FBF6F1E407B4463746B6461F23B0FB02
:100E1000F6F0D21B41EA004161E7614614E7104653
:100E200028E7C3F1200120FA01F29E4027FA01F1E0
:100E30009F403A434FEA164E1FFA86FCB1FBFEF77D
:100E40000EFB1710110C41EA004107FB0CF8884516
:100E500004FA03F43AD9711807F1FF3001D288453A
:100E60001FD8A1EB0801B1FBFEF808FB0CF70EFB45
:100E7000181192B242EA0142BA422FD2B21808F1D6
:100E8000FF31C6D2BA42C4D2A8F102013244C0E74F
:100E9000F0459CD2BEEB020367EB0C070138B94664
:100EA00095E7A6EB08084144B81EB1FBFEF808FB25
:100EB0000CF7DCE73B467FE7504667E70846FBE672
:100EC0003444023832E7023F32441BE7A1EB080109
:100ED0003846B1FBFEF808FB0CF7C8E7414698E737
:100EE000704700BF80B586B004AF03460A46FB7169
:100EF0001346BB710C4B1B781946FB799AB202233F
:100F0000029301230193BB1D00930123074803F0C3
:100F1000A9FA0346002B01D1012300E00023184663
:100F20000837BD4680BD00BF00000020B40400208B
:100F300080B586B004AF03463960FB711346BB80B1
:100F40000C4B1B781946FB799AB202230293BB889B
:100F500001933B6800930123074803F07DFB0346A0
:100F6000002B01D1012300E0002318460837BD46BD
:100F700080BD00BF00000020B404002080B582B016
:100F800000AF0023FB7000237B602FE0314BD022A9
:100F90001A70192002F00EFAFB1C012219460020DB
:100FA000FFF7C6FFFB78D12B08D02A4BD2221A704C
:100FB000FB1C012219460020FFF7BAFFFB78D12B5A
:100FC00018D0254B1B6A244A43F4001313620520F2
:100FD00002F0F0F9204B1B6A1F4A23F4001313623E
:100FE0001E4803F0FBF87B6801337B607B68042BB1
:100FF000CCDD00E000BFFB78D12B01D0002325E041
:10100000B6217E20FFF76EFF0F2002F0D3F91121E9
:101010007E20FFF767FF052002F0CCF915217E2026
:10102000FFF760FF372002F0C5F900214320FFF7EA
:1010300059FF08214120FFF755FF28214020FFF7E5
:1010400051FF28214220FFF74DFF012318460837A2
:10105000BD4680BD0000002000380240B4040020DE
:1010600080B588B000AF786007F108030C221946FC
:101070000C20FFF75DFF034683F00103DBB2002B7A
:1010800001D000238DE07B7A1BB21B021AB23B7A9F
:101090001BB21343FB83FB7A1BB21B021AB2BB7A4F
:1010A0001BB21343BB837B7B1BB21B021AB23B7B7D
:1010B0001BB213437B83FB7B1BB21B021AB2BB7BAD
:1010C0001BB213433B837B7C1BB21B021AB23B7CDB
:1010D0001BB21343FB82FB7C1BB21B021AB2BB7C0C
:1010E0001BB21343BB82B7F91E3007EE903AF8EEFD
:1010F000E77A9FED2E7A27EE877A2D4BD3ED007A93
:1011000077EE677A7B68C3ED007AB7F91C3007EE9B
:10111000903AF8EEE77A9FED257A27EE877A254B0D
:10112000D3ED007A77EE677A7B68C3ED017AB7F981
:101130001A3007EE903AF8EEE77A9FED1C7A27EE28
:10114000877A1D4BD3ED007A77EE677A7B68C3ED23
:10115000027AB7F9183007EE903AF8EEE77A9FED89
:10116000177A67EE877A7B68C3ED037AB7F9163092
:1011700007EE903AF8EEE77A9FED107A67EE877AFD
:101180007B68C3ED047AB7F9143007EE903AF8EEB5
:10119000E77A9FED0A7A67EE877A7B68C3ED057A76
:1011A000012318462037BD4680BD00BF90C1793D60
:1011B000180200201C0200202002002000008039BC
:1011C00080B58AB000AF0346FB804FF000037B621E
:1011D0004FF000033B624FF00003FB61494B4FF0BF
:1011E00000021A60484B4FF000021A60474B4FF064
:1011F00000021A6000237B8357E007F108030C22EA
:1012000019460C20FFF794FE0346002B47D07B7A4B
:101210001BB21B021AB23B7A1BB213433B83FB7A0D
:101220001BB21B021AB2BB7A1BB21343FB827B7B3D
:101230001BB21B021AB23B7B1BB21343BB82B7F932
:10124000183007EE903AF8EEE77A9FED317A67EEC4
:10125000877A97ED097A77EE277AC7ED097AB7F999
:10126000163007EE903AF8EEE77A9FED297A67EEAE
:10127000877A97ED087A77EE277AC7ED087AB7F97B
:10128000143007EE903AF8EEE77A9FED217A67EE98
:10129000877A97ED077A77EE277AC7ED077A0520E8
:1012A00002F088F87B8B01337B837A8BFB889A4230
:1012B000A3D3FB8807EE903AB8EE677AD7ED096AB8
:1012C000C6EE877A0F4BC3ED007AFB8807EE903AA3
:1012D000B8EE677AD7ED086AC6EE877A0A4BC3ED97
:1012E000007AFB8807EE903AB8EE677AD7ED076A86
:1012F000C6EE877A054BC3ED007A00BF2837BD469E
:1013000080BD00BF180200201C0200202002002027
:1013100090C1793D80B500AF00224FF4805108485C
:1013200002F004FF01224FF40051064802F0FEFED5
:10133000054B03221A70054B00221A7000BF80BDB6
:101340000004024000080240240200203002002075
:1013500080B500AF01224FF48051024802F0E6FE52
:1013600000BF80BD0004024080B500AF00224FF4F2
:101370008051044802F0DAFE034B00221A7000BFCD
:1013800080BD00BF000402403002002080B582B062
:1013900000AF0346FB80FFF7DBFF01F0FFFF0246D3
:1013A000FB881344044A1360044B01221A7000BFE7
:1013B0000837BD4680BD00BF2C020020300200204F
:1013C00080B500AF00224FF40051024802F0AEFE9B
:1013D00000BF80BD0008024080B500AF01224FF47D
:1013E0000051024802F0A2FE00BF80BD000802408A
:1013F00080B500AF4FF40051024802F0B0FE00BFCC
:1014000080BD00BF0008024080B582B000AF034637
:10141000FB71094AFB791370FB79002B02D1FFF7AE
:10142000DBFF04E0FB79012B01D1FFF7C9FF00BF0F
:101430000837BD4680BD00BF2402002080B582B0C1
:1014400000AF78604D4B1B78002B06D04C4B1B68CF
:101450007A689A4201D3FFF787FF4A4B1B78023B19
:10146000032B7ED801A252F823F000BF7D140008A0
:1014700097140008C7140008AF140008424B1B68FB
:101480007A68D31AB3F5FA7F6DD3FFF7B1FF3E4AFE
:101490007B68136067E03C4B1B687A68D31A632B48
:1014A00063D9FFF7A5FF384A7B6813605DE0364BD0
:1014B0001B687A68D31A312B59D9FFF799FF324A42
:1014C0007B68136053E0314B1B78002B0FD12E4B00
:1014D0001B687A68D31AB3F5487F08D3FFF770FF0B
:1014E000294A7B681360294B01221A7038E0274B88
:1014F0001B78012B0ED1244B1B687A68D31A312B31
:1015000008D9FFF769FF204A7B6813601F4B02224E
:101510001A7025E01D4B1B78022B0ED11A4B1B684D
:101520007A68D31A632B08D9FFF74AFF164A7B68FB
:101530001360164B03221A7012E0144B1B78032B16
:1015400017D1114B1B687A68D31A312B11D9FFF7C9
:1015500043FF0D4A7B6813600C4B00221A7008E0B1
:1015600007E000BF06E000BF04E000BF02E000BFEC
:1015700000E000BF00BF0837BD4680BD300200203C
:101580002C0200202402002028020020310200202A
:1015900080B582B000AF00237B60104B1B6B0F4AFD
:1015A00043F4800313630D4B1B6B03F480037B60D8
:1015B0007B68002201213A2001F0FBFF3A2002F073
:1015C00014F800220121462001F0F3FF462002F02A
:1015D0000CF800BF0837BD4680BD00BF0038024090
:1015E00080B500AF3C21054804F0D4FC3C21044800
:1015F00004F0D0FC00F006F800BF80BD68050020B4
:10160000B005002080B400AF174B1B6800225A625F
:10161000164B1B6800225A62154B00221A80154B8C
:1016200000221A80144B00221A60134B00229A8069
:10163000114B4FF000029A600F4B4FF00002DA603E
:101640000E4B00221A600D4B00229A800B4B4FF07C
:1016500000029A60094B4FF00002DA6000BFBD46FD
:101660005DF8047B704700BF68050020B0050020CE
:1016700054020020560200203402002044020020C0
:1016800080B485B000AF87ED010AD7ED017A9FEDF8
:10169000427AF4EEC77AF1EE10FA76D93F4B1B6826
:1016A0005B6AFB813E4B1B685B6ABB813D4B1B88C1
:1016B000FA89D31A9BB27B813B4B1A88BB89D31A18
:1016C0009BB23B81374AFB891380374ABB89138021
:1016D000364A7B899380364A3B899380334B1A681C
:1016E000B7F90A301344314A1360314B1A68B7F91D
:1016F000083013442E4A1360B7F90A3007EE903AC7
:10170000F8EEE77A9FED2B7A67EE876A97ED017A1C
:10171000C6EE877A254BC3ED027AB7F9083007EE9B
:10172000903AF8EEE77A9FED237A67EE876A97EDB5
:10173000017AC6EE877A1E4BC3ED027A1B4BD3EDBE
:10174000027AB5EE007A27EE877A184BD3ED037A4A
:10175000F6EE086A67EEA67A77EE277A134BC3EDAA
:10176000037A134BD3ED027AB5EE007A27EE877A2F
:101770000F4BD3ED037AF6EE086A67EEA67A77EEA2
:10178000277A0B4BC3ED037A00E000BF1437BD4648
:101790005DF8047B704700BF17B7D138680500209B
:1017A000B005002054020020560200203402002020
:1017B00044020020DE36223980B400AF084B93ED9E
:1017C000037A084BD3ED037A77EE277AB6EE007AE8
:1017D00067EE877AB0EE670ABD465DF8047B704716
:1017E000340200204402002080B500AF4FF4807224
:1017F00000210C4807F0F2FB0B4B00221A800B4B28
:1018000000221A700A4B00221A7001F0C7FD03462D
:10181000084AD3604FF480720249074805F0E8FB9C
:1018200000BF80BD5802002058030020AC040020F7
:10183000AD0400205C0400204006002080B58CB080
:1018400002AF786005224E49786807F0CFFB034667
:10185000002B1DD14FF000037B624FF000033B6271
:101860007B68581D07F1200307F12402454907F062
:10187000B1FA0346002B7EDD7B6A434A13603B6A64
:10188000414A536001F08AFD03463F4AD36072E04B
:1018900005223E49786807F0A9FB0346002B31D1A9
:1018A0004FF00003FB614FF00003BB614FF00003FA
:1018B0007B614FF000033B617B68581D07F1180105
:1018C00007F11C0207F11003019307F114030093C1
:1018D0000B462F4907F07EFA0346042B4BD1D7ED78
:1018E000077A97ED067AD7ED056A97ED046AF0EE70
:1018F000461AB0EE661AF0EE470AB0EE670A00F03C
:101900009DFC38E006222349786807F06FFB034608
:10191000002B11D10023FB607B68063307F10C021A
:101920001D49184607F056FA0346012B23D1FB68E0
:10193000DAB2154B1A721EE006221849786807F0D1
:1019400055FB0346002B03D10F4B01225A7212E0C4
:1019500005221349786807F049FB0346002B0AD19A
:10196000094B01229A72084B4FF000021A60064B95
:101970004FF000025A6000BF2837BD4680BD00BF4F
:10198000B8BC0008C0BC00085C040020C8BC00084B
:10199000D0BC0008DCBC0008E4BC0008E8BC0008BF
:1019A000F0BC000880B582B000AF3D4BDB6B1B681C
:1019B0005B68FB80FB88C3F58073BB8056E0394BC6
:1019C0001B881A46384B9B5CFB70364B1B880133D7
:1019D0005A42DBB2D2B258BF53429AB2314B1A804C
:1019E000FB78242B10D1314B01221A70304B00228E
:1019F0001A702F4B1B785A1CD1B22D4A1170194600
:101A00002C4AFB78535431E0284B1B78002B2DD007
:101A1000FB782A2B05D0FB780D2B02D0FB780A2B04
:101A20000FD1234B1B781A46224B00219954214891
:101A3000FFF704FF1D4B00221A701D4B00221A7085
:101A400014E01B4B1B783E2B0AD8194B1B785A1CF1
:101A5000D1B2174A11701946164AFB78535405E063
:101A6000124B00221A70124B00221A700D4B1B8869
:101A7000BA889A42A3D101F091FC02460E4BDB6872
:101A8000D31AB3F57A7F07D90B4B4FF000021A60D7
:101A9000094B4FF000025A6000BF0837BD4680BDB9
:101AA000400600205803002058020020AD0400200A
:101AB000AC0400206C0400205C04002080B400AF63
:101AC000024B1846BD465DF8047B70475C0400205D
:101AD0002DE9F04F9DB00EAF87ED0B0AC7ED0A0A56
:101AE00087ED091AC7ED081A034687ED052AFB831F
:101AF0000B46BB831346FB762B4B93F84130DBB28E
:101B0000202B01D000234AE0F86AFEF725FD0446A9
:101B10000D46B86AFEF720FD80468946786AFEF7D2
:101B20001BFD82468B46386AFEF716FDC7E90201A7
:101B3000B7F91E60B7F91C303B61FA7E7A607869AC
:101B4000FEF70AFD02460B46CDE90C237A680A929D
:101B50003B690993089697ED027B8DED067BCDE9F5
:101B600004ABCDE90289CDE90045104A4FF48071FC
:101B70000F4807F0F9F878637B6B002B0EDD7B6B69
:101B8000FF2B0BDC7B6B9BB21A460949064805F01C
:101B9000B3F90346002B01D1012300E000231846CE
:101BA0003C37BD46BDE8F08F40060020F8BC000879
:101BB0005C03002080B483B000AF87ED010A044AC3
:101BC0007B68136000BF0C37BD465DF8047B70472F
:101BD000B004002080B586B000AF87ED030AC7EDE2
:101BE000020A87ED011AC7ED001AD7ED010A97ED39
:101BF000020A09F0D1FEF0EE407A9FED147A67EE0A
:101C0000877AC7ED057A97ED037AD7ED007A27EE4C
:101C1000277A0F4BD3ED007A77EE277A9FED0D7A76
:101C200027EE877AD7ED057ADFED0B6A67EEA67AA5
:101C300077EE277A064BC3ED007A054B1B6807EE5B
:101C4000903AB0EE670A1837BD4680BDE12E654276
:101C5000B004002048E17A3F00D7A33C80B58AB0A9
:101C600000AF07F1140300221A605A609A60DA602C
:101C70001A6100233B613C4B1B6B3B4A43F004035E
:101C80001363394B1B6B03F004033B613B69002377
:101C9000FB60354B1B6B344A43F080031363324BBC
:101CA0001B6B03F08003FB60FB680023BB602E4BC3
:101CB0001B6B2D4A43F0010313632B4B1B6B03F08B
:101CC0000103BB60BB6800237B60274B1B6B264A6C
:101CD00043F002031363244B1B6B03F002037B608E
:101CE0007B6801224FF40051204802F01FFA0022C5
:101CF0004FF480511E4802F019FA4FF400537B61F3
:101D00000123BB610023FB6100233B6207F1140345
:101D10001946164802F086F804237B614FF48813B5
:101D2000BB610023FB6107F114031946104802F060
:101D300079F84FF480537B610123BB610023FB6181
:101D400000233B6207F114031946094802F06AF8C0
:101D500000220121082001F02CFC082001F045FCA4
:101D600000BF2837BD4680BD003802400008024051
:101D70000004024080B500AF124B134A1A60114BA9
:101D8000124A5A600F4B00229A600E4B0022DA6012
:101D90000C4B4FF480421A610A4B00225A61094BE6
:101DA00000229A61074B0022DA61064B00221A6278
:101DB000044802F013FA0346002B01D000F036F974
:101DC00000BF80BDB404002000540040801A06000B
:101DD00080B58AB000AF786007F1140300221A6062
:101DE0005A609A60DA601A617B681B68194A9342EC
:101DF0002CD100233B61184B1B6B174A43F00203A5
:101E00001363154B1B6B03F002033B613B694FF4FB
:101E100040737B611223BB610123FB6103233B629F
:101E200004237B6207F1140319460C4801F0FAFF02
:101E30000023FB60084B1B6C074A43F40013136438
:101E4000054B1B6C03F40013FB60FB6800BF2837D5
:101E5000BD4680BD005400400038024000040240EE
:101E600080B582B000AF01F033FA00F053F8FFF70D
:101E7000F5FEFFF78DFBFFF77DFF00F071FE00F030
:101E800033FF00F085FF00F0D7FF01F017F900F0F5
:101E90007BFB1F4803F06CFE00237B60FFF782FD95
:101EA00001F07CFA03461846FFF7C8FA01F076FA0B
:101EB00002467B68D31A312BF0D901F06FFA7860B3
:101EC00000F0E6FC38603B68D3ED017A3B6893EDA7
:101ED000027A3B68D3ED036A3B6893ED046A3B6882
:101EE000B3F918003B68B3F91A103B681A783B68DD
:101EF000D3ED075AB0EE652AF0EE461AB0EE661A38
:101F0000F0EE470AB0EE670AFFF7E2FDC6E700BF52
:101F1000F805002080B594B000AF07F1200330220F
:101F20000021184607F05AF807F10C0300221A6046
:101F30005A609A60DA601A610023BB60274B1B6C01
:101F4000264A43F080531364244B1B6C03F08053E8
:101F5000BB60BB6800237B60214B1B68204A43F4B5
:101F6000404313601E4B1B6803F440437B607B6857
:101F700001233B624FF480337B620223BB634FF447
:101F80008003FB6319233B64C8237B640223BB6487
:101F90000423FB6407F12003184603F043F90346CA
:101FA000002B01D000F042F80F23FB6002233B61BD
:101FB00000237B614FF48053BB610023FB6107F179
:101FC0000C030321184603F0A5FB0346002B01D0A8
:101FD00000F02CF800BF5037BD4680BD00380240ED
:101FE0000070004080B582B000AF7860391D0A23D0
:101FF0000122044804F0F4FE7B6818460837BD4609
:1020000080BD00BF4006002080B582B000AF786080
:102010007B681B68044A934201D100F00FFB00BFAC
:102020000837BD4680BD00BF0008004080B400AF47
:1020300072B600BF00BFFDE780B500AF00210D48BC
:1020400003F052FE04210B4803F04EFE082109481C
:1020500003F04AFE0C21074803F046FE054B1B68BF
:102060005A6C044B1B6842F400425A6400F080F83A
:1020700000BF80BD2005002080B483B000AF0346C0
:102080000A46FB801346BB80B7F9063040F6C31200
:10209000934202DD40F6C313FB80B7F90630324AA3
:1020A000934202DA4FF23D63FB80B7F9043040F609
:1020B000C312934202DD40F6C313BB80B7F904306C
:1020C000294A934202DA4FF23D63BB80B7F90630EA
:1020D000002B08DDFA88254B1B685A63234B1B68CD
:1020E00000229A6316E0B7F90630002B0ADA1F4B7C
:1020F0001B6800225A63FB885B429AB21B4B1B6829
:102100009A6307E0194B1B6800225A63174B1B6840
:1021100000229A63B7F90430002B08DDBA88134B0C
:102120001B68DA63114B1B6800221A6416E0B7F9CA
:102130000430002B0ADA0D4B1B680022DA63BB88DF
:102140005B429AB2094B1B681A6407E0074B1B6895
:102150000022DA63054B1B6800221A6400BF0C37AB
:10216000BD465DF8047B70473DF6FFFF200500206B
:1021700080B400AF0A4B1B6800225A63084B1B68EF
:1021800000229A63064B1B680022DA63044B1B682B
:1021900000221A6400BFBD465DF8047B704700BF93
:1021A0002005002080B500AF114B1B685A6C104B06
:1021B0001B6842F400425A6400214FF47A70FFF722
:1021C0005BFF4FF4AF7001F0F5F8FFF7D1FF64202B
:1021D00001F0F0F84FF47A710020FFF74DFF4FF453
:1021E000AF7001F0E7F8FFF7C3FF00BF80BD00BF8D
:1021F0002005002080B400AF0A4B0B4A1A60094B3F
:102200000A4A5A600A4B0B4A1A60094B0A4A5A603A
:10221000074B4FF000029A6000BFBD465DF8047B9B
:10222000704700BF080500200000AF4300000841D0
:10223000100500209A99993F9A99193E80B485B06B
:1022400000AF87ED030AC7ED020A87ED011AC7ED5B
:10225000001AD7ED037AF5EEC07AF1EE10FA02DB40
:10226000134AFB681360D7ED027AF5EEC07AF1EEFF
:1022700010FA02DB0E4ABB685360D7ED017AF5EE27
:10228000C07AF1EE10FA02DB0A4A7B681360D7EDE0
:10229000007AF5EEC07AF1EE10FA00DA02E0054AB3
:1022A0003B68536000BF1437BD465DF8047B704740
:1022B000080500201005002080B489B000AF87ED2C
:1022C000030AC7ED020A034687ED001AFB7197ED7A
:1022D000037AD7ED027A77EE677AC7ED067A354B47
:1022E00093ED027A334BD3ED016AD7ED067A66EEB1
:1022F000A76AD7ED007A66EEA77A77EE277A2D4B9C
:10230000C3ED027A2B4BD3ED027AB2EE047AF4EEEF
:10231000C77AF1EE10FA03DD264B274A9A600CE0EB
:10232000244BD3ED027ABAEE047AF4EEC77AF1EEDA
:1023300010FA02D51F4B214A9A601E4B93ED007A8A
:10234000D7ED067A27EE277A1A4BD3ED027A77EE8D
:10235000277AC7ED077AFB79002B01D0184B01E0F3
:102360004FF082437B6197ED077AD7ED057AB4EEA3
:10237000E77AF1EE10FA02DD7B69FB6110E0D7ED40
:10238000057AF1EE677A97ED077AB4EEE77AF1EE27
:1023900010FA05D5D7ED057AF1EE677AC7ED077A21
:1023A000FB6907EE903AB0EE670A2437BD465DF848
:1023B000047B70471005002000002041000020C170
:1023C0000000704180B487B000AF87ED030AC7ED0D
:1023D000020A87ED011A97ED037AD7ED027A77EEBC
:1023E000677AC7ED057A0E4B93ED007AD7ED057A43
:1023F00027EE277A0A4BD3ED016AD7ED017A66EE14
:10240000A77A77EE677AC7ED047A3B6907EE903AD0
:10241000B0EE670A1C37BD465DF8047B704700BF0D
:102420000805002080B485B000AF87ED010AC7ED34
:10243000000A104BFB60D7ED007AB0EEE77AD7EDDB
:10244000037A67EE277AB7EE007A37EE877AF7EEEF
:10245000006AC6EE877AC7ED027A97ED017AD7ED6A
:10246000027A67EE277AB0EE670A1437BD465DF848
:10247000047B70479A99993F80B485B000AF87ED8F
:10248000010A03460A467B8013463B80D7ED017A5A
:10249000B7EE007AF4EEC77AF1EE10FA28DDB7F95C
:1024A000023007EE903AF8EEE77A97ED017A77EE90
:1024B000277AC7ED037AB7F9003007EE903AF8EEC5
:1024C000E77A97ED037AB4EEE77AF1EE10FA07DDDA
:1024D000B7F9003007EE903AF8EEE77AC7ED037AE5
:1024E000D7ED037AFDEEE77A17EE903A1BB236E0AD
:1024F000D7ED017ABFEE007AF4EEC77AF1EE10FA6A
:102500002CD5B7F9023007EE903AF8EEE77A97ED5E
:10251000017A77EE677AC7ED027AB7F9003007EEF5
:10252000903AF8EEE77AF1EE677A97ED027AB4EE38
:10253000E77AF1EE10FA09D5B7F9003007EE903AD4
:10254000F8EEE77AF1EE677AC7ED027AD7ED027A14
:10255000FDEEE77A17EE903A1BB200E00023184632
:102560001437BD465DF8047B7047000080B400AFAF
:10257000044B4FF000029A6000BFBD465DF8047B3B
:10258000704700BF1005002080B588B000AFFEF78F
:10259000C1FEFFF751FDFFF7EBFDFFF721F8FFF755
:1025A00029FEFFF721F9FFF7FDFDFEF7E7FC0346E3
:1025B00083F00103DBB2002B08D01E4B06221A70F9
:1025C0000520FEF721FFFEF7C3FE2FE0194B012285
:1025D0001A700320FEF718FF6420FEF7D7FE4FF4B1
:1025E000FA70FEF7EDFD3B1D1846FEF739FDD7EDFD
:1025F000047A97ED067AF0EE470AB0EE670A09F022
:10260000CBF9F0EE407A9FED0C7A67EE877AC7ED52
:10261000077A97ED070AFFF7CDFA064B02221A70E8
:102620000220FEF7F1FEC820FEF7B0FE2037BD46BF
:1026300080BD00BF04000020E12E654280B58EB051
:1026400000AF904B1B6A01338E4A13628D4B1B788F
:10265000062B02D1FFF78CFD11E13B461846FEF731
:10266000FFFC034683F00103DBB2002B0AD0854B4D
:1026700006221A700520FEF7C7FEFEF769FEFFF777
:1026800077FDFCE0D7ED017A97ED037AD7ED056A87
:10269000DFED7D1AB0EE661AF0EE470AB0EE670A7B
:1026A000FFF798FAF0EE407A764BC3ED017A7B683B
:1026B000744A93609FED740AFEF7E2FFFFF77CF81F
:1026C000F0EE407A6F4BC3ED037AFFF7F7F97863CA
:1026D0007B6B9B7A002B05D06A4B05221A707B6BB3
:1026E00000229A72674BD3ED017AF0EEE77A9FED04
:1026F000677AF4EEC77AF1EE10FA19DDFFF738FDCC
:10270000FFF734FF5F4B00221A835E4B00225A838F
:102710005C4B1B78052B00F0B1805A4B05221A70D8
:102720000520FEF771FE4FF49670FEF72FFEA5E030
:10273000544B1B78022B03D0524B1B78052B22D114
:10274000504BD3ED017AF0EEE77AB2EE0E7AF4EE6A
:10275000C77AF1EE10FA13D57B6B1B7A002B01D0F0
:10276000042200E00322474B1A70FFF7FFFEFEF73A
:1027700049FF0420FEF748FE5020FEF707FE02E066
:10278000FFF7F6FC7BE03F4B1B78032B03D03D4B60
:102790001B78042B73D17B6B1B683A4A13617B6BEC
:1027A0005B68384A5361374B1B78042B0CBF0123FD
:1027B0000023DBB287F83330324BD3ED047A314B50
:1027C00093ED037A97F833309FED2F1A1846F0EE09
:1027D000470AB0EE670AFFF76FFD87ED0B0A294B3A
:1027E000D3ED017A274B93ED027AB0EE471AF0EE63
:1027F000670A97ED0B0AFFF7E5FD87ED0A0A214B03
:10280000D3ED057A1F4B93ED037AF0EE470AB0EE55
:10281000670AFFF707FE87ED090A97ED0A7AD7EDF9
:10282000097A77EE277AC7ED087A97ED0A7AD7ED1D
:10283000097A77EE677AC7ED077A40F6C311FA2076
:1028400097ED080AFFF718FE03467B8340F6C31195
:10285000FA2097ED070AFFF70FFE03463B83094A6C
:102860007B8B1383074A3B8B5383B7F91820B7F947
:102870001A3011461846FFF7FFFB00E000BF38375B
:10288000BD4680BD040000200AD7A33B00003442AF
:1028900080B400AF024B1846BD465DF8047B70471C
:1028A0000400002080B483B000AF00237B60104B95
:1028B0005B6C0F4A43F4804353640D4B5B6C03F431
:1028C00080437B607B6800233B60094B1B6C084A9C
:1028D00043F080531364064B1B6C03F080533B6042
:1028E0003B6800BF0C37BD465DF8047B704700BFF6
:1028F0000038024080B400AF00BFFDE780B400AFF5
:1029000000BFFDE780B400AF00BFFDE780B400AFBB
:1029100000BFFDE780B400AF00BFFDE780B400AFAB
:1029200000BFBD465DF8047B704780B400AF00BFB8
:10293000BD465DF8047B704780B400AF00BFBD4664
:102940005DF8047B704780B500AF00F013FD00BF59
:1029500080BD80B500AF042001F01CFC00BF80BD2D
:1029600080B500AF024803F0A3FB00BF80BD00BFED
:10297000F805002080B500AF024804F05FFB00BFFF
:1029800080BD00BF4006002080B500AF024800F0C7
:10299000DFFF00BF80BD00BF8806002080B500AF0C
:1029A000024800F0D5FF00BF80BD00BFE806002050
:1029B00080B400AF01231846BD465DF8047B704724
:1029C00080B582B000AF7860396006F06BFB0346DB
:1029D00016221A604FF0FF3318460837BD4680BDF7
:1029E00080B582B000AF78604FF0FF317868FFF7B4
:1029F000E7FF00BFFDE780B586B000AFF860B960C3
:102A00007A6000237B610AE0AFF300800146BB6877
:102A10005A1CBA60CAB21A707B6901337B617A6949
:102A20007B689A42F0DB7B6818461837BD4680BD4C
:102A300080B586B000AFF860B9607A6000237B6132
:102A400009E0BB685A1CBA601B781846FFF7CAFA3F
:102A50007B6901337B617A697B689A42F1DB7B6831
:102A600018461837BD4680BD80B483B000AF78608B
:102A70004FF0FF3318460C37BD465DF8047B7047B6
:102A800080B483B000AF786039603B684FF4005287
:102A90005A60002318460C37BD465DF8047B70472A
:102AA00080B483B000AF7860012318460C37BD4670
:102AB0005DF8047B704780B485B000AFF860B96002
:102AC0007A60002318461437BD465DF8047B7047D2
:102AD00080B586B000AF7860144A154BD31A7B617D
:102AE0007B693B61134B1B68002B02D1114B124ACF
:102AF0001A60104B1A687B6813443A699A4207D2ED
:102B000006F0D0FA03460C221A604FF0FF3309E0BA
:102B1000084B1B68FB60074B1A687B681344054A27
:102B20001360FB6818461837BD4680BD00000220C0
:102B3000000400001C0500209808002080B400AFAD
:102B4000064BD3F88830054A43F47003C2F8883046
:102B500000BFBD465DF8047B704700BF00ED00E09C
:102B600080B596B000AF07F1480300221A605A60A2
:102B70009A60DA6007F1400300221A605A6007F198
:102B8000240300221A605A609A60DA601A615A615E
:102B90009A613B1D20220021184606F01FFA504B77
:102BA000504A1A604E4B00225A604D4B20229A60C8
:102BB0004B4B40F6C312DA60494B00221A61484B76
:102BC00000225A61464B80229A61454802F080FFFC
:102BD0000346002B01D0FFF729FA4FF48053BB6462
:102BE00007F1480319463E4803F014FC0346002B46
:102BF00001D0FFF71BFA3A4803F01CF80346002BFC
:102C000001D0FFF713FA00233B6400237B6407F134
:102C100040031946324803F0BFFF0346002B01D0A2
:102C2000FFF704FA60237B620023BB620023FB6290
:102C300000233B6300237B630023BB630023FB6310
:102C400007F1240300221946254803F021FB03461F
:102C5000002B01D0FFF7EAF907F1240304221946FB
:102C60001F4803F015FB0346002B01D0FFF7DEF9E8
:102C700007F1240308221946194803F009FB03460B
:102C8000002B01D0FFF7D2F907F124030C221946DB
:102C9000134803F0FDFA0346002B01D0FFF7C6F9F5
:102CA00000237B600023BB600023FB6000233B61AB
:102CB00000237B614FF40053BB6100233B623B1D4B
:102CC0001946074803F0D6FF0346002B01D0FFF753
:102CD000ADF9034800F0B8F900BF5837BD4680BDD4
:102CE000200500200000014080B58CB000AF07F146
:102CF0000C0324220021184606F070F93B1D002227
:102D00001A605A60214B4FF080421A601F4B00221C
:102D10005A601E4B00229A601C4B4FF6FF72DA601D
:102D20001A4B00221A61194B00229A610323FB609F
:102D300000233B6101237B610023BB610623FB6110
:102D400000233B6201237B620023BB620623FB62FC
:102D500007F10C0319460D4803F076F80346002BE3
:102D600001D0FFF763F900237B600023BB603B1DAC
:102D70001946064803F010FF0346002B01D0FFF769
:102D800055F900BF3037BD4680BD00BF6805002043
:102D900080B58CB000AF07F10C0324220021184647
:102DA00006F01CF93B1D00221A605A60204B214A94
:102DB0001A601F4B00225A601D4B00229A601C4B68
:102DC0004FF6FF72DA601A4B00221A61184B00228C
:102DD0009A610323FB6000233B6101237B61002395
:102DE000BB610623FB6100233B6201237B6200235E
:102DF000BB620623FB6207F10C0319460C4803F083
:102E000023F80346002B01D0FFF710F900237B6065
:102E10000023BB603B1D1946054803F0BDFE034679
:102E2000002B01D0FFF702F900BF3037BD4680BD4F
:102E3000B00500200004004080B586B000AF07F167
:102E4000080300221A605A609A60DA603B4600224A
:102E50001A605A601D4B1E4A1A601C4B63225A604E
:102E60001A4B00229A60194B41F28732DA60174BF5
:102E700000221A61154B80229A61144802F028FE44
:102E80000346002B01D0FFF7D1F84FF48053BB600D
:102E900007F1080319460D4803F0BCFA0346002B5E
:102EA00001D0FFF7C3F800233B6000237B603B4663
:102EB0001946064803F070FE0346002B01D0FFF7C9
:102EC000B5F800BF1837BD4680BD00BFF80500202B
:102ED0000008004080B584B000AF78607B681B6854
:102EE000184A93420ED10023FB60174B5B6C164AC5
:102EF00043F001035364144B5B6C03F00103FB606C
:102F0000FB681AE07B681B68104A934215D10023C6
:102F1000BB600D4B1B6C0C4A43F0040313640A4B5B
:102F20001B6C03F00403BB60BB68002200211E2061
:102F300000F03FFB1E2000F058FB00BF1037BD46DD
:102F400080BD00BF00000140003802400008004082
:102F500080B58CB000AF786007F11C0300221A60C6
:102F60005A609A60DA601A617B681B68B3F1804F1F
:102F70002CD10023BB61304B1B6C2F4A43F0010363
:102F800013642D4B1B6C03F00103BB61BB69002371
:102F90007B61294B1B6B284A43F001031363264BCB
:102FA0001B6B03F001037B617B690323FB6102233D
:102FB0003B6200237B620023BB620123FB6207F1BB
:102FC0001C0319461D4800F02DFF30E07B681B688C
:102FD0001B4A93422BD100233B61174B1B6C164AB3
:102FE00043F002031364144B1B6C03F002033B61B8
:102FF0003B690023FB60104B1B6B0F4A43F002033D
:1030000013630D4B1B6B03F00203FB60FB68302363
:10301000FB6102233B6200237B620023BB6202232D
:10302000FB6207F11C031946064800F0FBFE00BFD7
:103030003037BD4680BD00BF00380240000002406E
:10304000000400400004024080B588B000AF786002
:1030500007F10C0300221A605A609A60DA601A6164
:103060007B681B68124A93421ED10023BB60114B40
:103070001B6B104A43F0010313630E4B1B6B03F0F1
:103080000103BB60BB684FF47063FB6002233B61CC
:1030900000237B610023BB610123FB6107F10C036B
:1030A0001946054800F0BEFE00BF2037BD4680BD72
:1030B00000000140003802400000024080B500AF2F
:1030C000114B124A1A60104B4FF4E1325A600E4B0A
:1030D00000229A600C4B0022DA600B4B00221A612E
:1030E000094B0C225A61084B00229A61064B0022C0
:1030F000DA61054803F024FE0346002B01D0FEF7F9
:1031000095FF00BF80BD00BF4006002000100140B9
:1031100080B58AB000AF786007F1140300221A600E
:103120005A609A60DA601A617B681B684C4A934265
:1031300040F0918000233B614A4B5B6C494A43F06D
:1031400010035364474B5B6C03F010033B613B6916
:103150000023FB60434B1B6B424A43F002031363A3
:10316000404B1B6B03F00203FB60FB68C0237B61D9
:103170000223BB610023FB6103233B6207237B62C5
:1031800007F114031946384800F04CFE374B384A13
:103190001A60364B4FF000625A60344B00229A603E
:1031A000324B0022DA60314B4FF480621A612F4BB0
:1031B00000225A612D4B00229A612C4B4FF48072F1
:1031C000DA612A4B00221A62284B00225A622748F1
:1031D00000F026FA0346002B01D0FEF727FF7B689C
:1031E000224ADA63214A7B689363224B224A1A609F
:1031F000204B4FF000625A601E4B40229A601D4BDC
:103200000022DA601B4B4FF480621A61194B0022D6
:103210005A61184B00229A61164B0022DA61154B55
:1032200000221A62134B00225A62124800F0F8F989
:103230000346002B01D0FEF7F9FE7B680D4A9A6326
:103240000C4A7B68936300220121252000F0B1F92C
:10325000252000F0CAF900BF2837BD4680BD00BF59
:10326000001001400038024000040240880600209F
:1032700040640240E8060020B8640240DFF834D021
:10328000FFF75CFC0C480D490D4A002302E0D458BE
:10329000C4500433C4188C42F9D30A4A0A4C0023A0
:1032A00001E013600432A242FBD305F001FFFEF7F8
:1032B000D7FD70470000022000000020FC01002024
:1032C00024C10008FC01002098080020FEE700004F
:1032D00080B500AF0E4B1B680D4A43F400731360BA
:1032E0000B4B1B680A4A43F480631360084B1B684E
:1032F000074A43F480731360032000F04FF90F2056
:1033000000F008F8FFF7CEFA0023184680BD00BF92
:10331000003C024080B582B000AF7860124B1A6862
:10332000124B1B7819464FF47A73B3FBF1F3B2FBDF
:10333000F3F3184600F067F90346002B01D0012390
:103340000EE07B680F2B0AD8002279684FF0FF301F
:1033500000F02FF9064A7B681360002300E0012388
:1033600018460837BD4680BD2800002030000020E8
:103370002C00002080B400AF064B1B781A46064B89
:103380001B681344044A136000BFBD465DF8047B0C
:10339000704700BF300000204807002080B400AF15
:1033A000034B1B681846BD465DF8047B704700BFA1
:1033B0004807002080B584B000AF7860FFF7EEFFCB
:1033C000B8607B68FB60FB68B3F1FF3F05D00A4B38
:1033D0001B781A46FB681344FB6000BFFFF7DEFF53
:1033E0000246BB68D31AFA689A42F7D800BF00BFFA
:1033F0001037BD4680BD00BF3000002080B485B0CE
:1034000000AF78607B6803F00703FB600C4BDB6860
:10341000BB60BA684FF6FF031340BB60FB681A023B
:10342000BB68134343F0BF6343F40033BB60044AFB
:10343000BB68D36000BF1437BD465DF8047B70479E
:1034400000ED00E080B400AF044BDB681B0A03F022
:1034500007031846BD465DF8047B704700ED00E0A9
:1034600080B483B000AF0346FB7197F90730002B9F
:103470000BDBFB7903F01F02074997F907305B0963
:10348000012000FA02F241F8232000BF0C37BD46AC
:103490005DF8047B704700BF00E100E080B483B0BA
:1034A00000AF03463960FB7197F90730002B0ADB48
:1034B0003B68DAB20C4997F907301201D2B20B44DB
:1034C00083F800230AE03B68DAB20849FB7903F08D
:1034D0000F03043B1201D2B20B441A7600BF0C3723
:1034E000BD465DF8047B704700E100E000ED00E0C0
:1034F00080B489B000AFF860B9607A60FB6803F00F
:103500000703FB61FB69C3F10703042B28BF0423F6
:10351000BB61FB690433062B02D9FB69033B00E066
:1035200000237B614FF0FF32BB6902FA03F3DA43F9
:10353000BB681A407B699A404FF0FF317B6901FA02
:1035400003F3D9437B680B40134318462437BD4629
:103550005DF8047B7047000080B582B000AF7860F2
:103560007B68013BB3F1807F01D301230FE00A4A5E
:103570007B68013B53600F214FF0FF30FFF78EFF58
:10358000054B00229A60044B07221A60002318465C
:103590000837BD4680BD00BF10E000E080B582B0B6
:1035A00000AF78607868FFF729FF00BF0837BD4695
:1035B00080BD80B586B000AF0346B9607A60FB730A
:1035C00000237B61FFF73EFF78617A68B96878690C
:1035D000FFF78EFF024697F90F3011461846FFF7A6
:1035E0005DFF00BF1837BD4680BD80B582B000AF1B
:1035F0000346FB7197F907301846FFF731FF00BF0C
:103600000837BD4680BD80B582B000AF786078686D
:10361000FFF7A2FF034618460837BD4680BD0000ED
:1036200080B586B000AF786000237B61FFF7B6FEFF
:1036300038617B68002B01D1012399E07B6802226D
:1036400083F835207B68002283F834207B681B6870
:103650001A687B681B6822F001021A600FE0FFF70E
:103660009DFE02463B69D31A052B08D97B682022B0
:103670005A657B68032283F83520032378E07B6852
:103680001B681B6803F00103002BE8D17B681B68F3
:103690001B687B617A69384B13407B617B685A6891
:1036A0007B689B681A437B68DB681A437B681B69ED
:1036B0001A437B685B691A437B689B691A437B6882
:1036C000DB691A437B681B6A13437A6913437B6186
:1036D0007B685B6A042B07D17B68DA6A7B681B6BAB
:1036E00013437A6913437B617B681B687A691A60AC
:1036F0007B681B685B697B617B6923F007037B61E7
:103700007B685B6A7A6913437B617B685B6A042B25
:1037100017D17B689B6A7A6913437B617B68DB6A9C
:10372000002B0ED0786800F001FB0346002B08D078
:103730007B6840225A657B68012283F8352001238B
:1037400016E07B681B687A695A61786800F0B8FAFD
:103750000346FB607B68DB6D3F229A40FB689A6002
:103760007B6800225A657B68012283F8352000239C
:1037700018461837BD4680BD3F8010F080B586B032
:1037800000AFF860B9607A603B600023FB75FB68AE
:103790009B6D3B61FB6893F83430012B01D1022310
:1037A00040E0FB68012283F83420FB6893F8353051
:1037B000DBB2012B2FD1FB68022283F83520FB6896
:1037C00000225A653B687A68B968F86800F04AFADE
:1037D000FB68DB6D3F229A403B699A60FB681B687F
:1037E0001A68FB681B6842F016021A60FB681B6CC3
:1037F000002B07D0FB681B681A68FB681B6842F047
:1038000008021A60FB681B681A68FB681B6842F0B4
:1038100001021A6005E0FB68002283F834200223CD
:10382000FB75FB7D18461837BD4680BD80B584B05A
:1038300000AF78607B689B6DFB60FFF7AFFDB86001
:103840007B6893F83530DBB2022B08D07B6880228E
:103850005A657B68002283F83420012352E07B689C
:103860001B681A687B681B6822F016021A607B6866
:103870001B685A697B681B6822F080025A617B686A
:103880001B6C002B03D17B689B6C002B07D07B68E3
:103890001B681A687B681B6822F008021A607B6844
:1038A0001B681A687B681B6822F001021A6013E02B
:1038B000FFF774FD0246BB68D31A052B0CD97B6851
:1038C00020225A657B68032283F835207B6800221A
:1038D00083F83420032315E07B681B681B6803F022
:1038E0000103002BE4D17B68DB6D3F229A40FB682B
:1038F0009A607B68012283F835207B68002283F878
:103900003420002318461037BD4680BD80B483B0F4
:1039100000AF78607B6893F83530DBB2022B04D0BF
:103920007B6880225A6501230CE07B68052283F8BE
:1039300035207B681B681A687B681B6822F00102CF
:103940001A60002318460C37BD465DF8047B7047AB
:1039500080B586B000AF78600023BB608E4B1B68DB
:103960008E4AA2FB03239B0A7B617B689B6D3B61B4
:103970003B691B68FB607B68DB6D08229A40FB6833
:103980001340002B1AD07B681B681B6803F00403EC
:10399000002B13D07B681B681A687B681B6822F0B9
:1039A00004021A607B68DB6D08229A403B699A60CA
:1039B0007B685B6D43F001027B685A657B68DB6D59
:1039C00001229A40FB681340002B12D07B681B68D1
:1039D0005B6903F08003002B0BD07B68DB6D012259
:1039E0009A403B699A607B685B6D43F002027B689A
:1039F0005A657B68DB6D04229A40FB681340002BFC
:103A000012D07B681B681B6803F00203002B0BD0ED
:103A10007B68DB6D04229A403B699A607B685B6D32
:103A200043F004027B685A657B68DB6D10229A4084
:103A3000FB681340002B43D07B681B681B6803F0B6
:103A40000803002B3CD07B68DB6D10229A403B6959
:103A50009A607B681B681B6803F48023002B18D0D6
:103A60007B681B681B6803F40023002B08D17B686C
:103A70001B6C002B24D07B681B6C786898471FE078
:103A80007B689B6C002B1BD07B689B6C786898478D
:103A900016E07B681B681B6803F48073002B07D15A
:103AA0007B681B681A687B681B6822F008021A6032
:103AB0007B681B6C002B03D07B681B6C7868984775
:103AC0007B68DB6D20229A40FB681340002B00F0DE
:103AD0008F807B681B681B6803F01003002B00F0CD
:103AE00087807B68DB6D20229A403B699A607B6807
:103AF00093F83530DBB2052B36D17B681B681A682A
:103B00007B681B6822F016021A607B681B685A6982
:103B10007B681B6822F080025A617B681B6C002B5B
:103B200003D17B689B6C002B07D07B681B681A68ED
:103B30007B681B6822F008021A607B68DB6D3F22FD
:103B40009A403B699A607B68012283F835207B6844
:103B5000002283F834207B681B6D002B7ED07B68AD
:103B60001B6D7868984779E07B681B681B6803F4D5
:103B70008023002B1DD07B681B681B6803F4002387
:103B8000002B0DD17B685B6C002B31D07B685B6CAC
:103B9000786898472CE000BF28000020B5814E1BB4
:103BA0007B68DB6B002B23D07B68DB6B78689847E6
:103BB0001EE07B681B681B6803F48073002B0FD129
:103BC0007B681B681A687B681B6822F010021A6009
:103BD0007B68012283F835207B68002283F834203B
:103BE0007B68DB6B002B03D07B68DB6B78689847C6
:103BF0007B685B6D002B32D07B685B6D03F001034B
:103C0000002B22D07B68052283F835207B681B6857
:103C10001A687B681B6822F001021A60BB680133D6
:103C2000BB607A699A4207D37B681B681B6803F004
:103C30000103002BF2D100E000BF7B68012283F872
:103C400035207B68002283F834207B68DB6C002BF6
:103C500005D07B68DB6C7868984700E000BF1837B8
:103C6000BD4680BD80B485B000AFF860B9607A60B1
:103C70003B60FB681B681A68FB681B6822F48022A3
:103C80001A60FB681B683A685A60FB689B68402BA7
:103C900008D1FB681B687A689A60FB681B68BA6881
:103CA000DA6007E0FB681B68BA689A60FB681B680B
:103CB0007A68DA6000BF1437BD465DF8047B704750
:103CC00080B485B000AF78607B681B68DBB2103BC6
:103CD000144AA2FB03231B09FB60134AFB6813442D
:103CE0001B781A467B68DA65FB68032B09D97B6869
:103CF0001B6823F47F7323F003031A1D7B689A6506
:103D000007E07B681B6823F47F7323F003037A6862
:103D100093657B689B6D18461437BD465DF8047B40
:103D2000704700BFABAAAAAA48BD000880B485B0FE
:103D300000AF78600023FB737B689B6ABB607B6885
:103D40009B69002B1FD1BB68032B56D801A252F8E8
:103D500023F000BF653D0008773D0008653D000881
:103D6000FB3D00087B68DB6A03F08073002B46D0C4
:103D70000123FB7343E07B68DB6AB3F1C07F40D172
:103D80000123FB733DE07B689B69B3F5005F21D1A4
:103D9000BB68032B37D801A252F823F0AD3D0008D1
:103DA000B33D0008AD3D0008C53D00080123FB738D
:103DB00030E07B68DB6A03F08073002B25D00123A1
:103DC000FB7322E07B68DB6AB3F1C07F1FD1012364
:103DD000FB731CE0BB68022B03D9BB68032B03D029
:103DE00018E00123FB7315E07B68DB6A03F0807346
:103DF000002B0ED00123FB730BE000BF0AE000BFD5
:103E000008E000BF06E000BF04E000BF02E000BF22
:103E100000E000BFFB7B18461437BD465DF8047B0D
:103E2000704700BF80B489B000AF7860396000236C
:103E30007B6100233B610023BB610023FB6159E1EF
:103E40000122FB6902FA03F37B613B681B687A6914
:103E500013403B613A697B699A4240F048813B6874
:103E60005B6803F00303012B05D03B685B6803F03C
:103E70000303022B30D17B689B68BB61FB695B004D
:103E8000032202FA03F3DB43BA691340BB613B68C8
:103E9000DA68FB695B0002FA03F3BA691343BB619A
:103EA0007B68BA699A607B685B68BB610122FB69C9
:103EB00002FA03F3DB43BA691340BB613B685B68FA
:103EC0001B0903F00102FB6902FA03F3BA69134309
:103ED000BB617B68BA695A603B685B6803F00303A7
:103EE000032B17D07B68DB68BB61FB695B00032297
:103EF00002FA03F3DB43BA691340BB613B689A687B
:103F0000FB695B0002FA03F3BA691343BB617B6888
:103F1000BA69DA603B685B6803F00303022B23D1C4
:103F2000FB69DA087B68083253F82230BB61FB6911
:103F300003F007039B000F2202FA03F3DB43BA6985
:103F40001340BB613B681A69FB6903F007039B00E0
:103F500002FA03F3BA691343BB61FB69DA087B68B1
:103F60000832B96943F822107B681B68BB61FB69A2
:103F70005B00032202FA03F3DB43BA691340BB611F
:103F80003B685B6803F00302FB695B0002FA03F322
:103F9000BA691343BB617B68BA691A603B685B68A6
:103FA00003F44033002B00F0A2800023FB60574B4A
:103FB0005B6C564A43F480435364544B5B6C03F48C
:103FC0008043FB60FB68524AFB699B08023352F84E
:103FD0002330BB61FB6903F003039B000F2202FA4D
:103FE00003F3DB43BA691340BB617B68494A9342E0
:103FF00019D07B68484A934213D07B68474A934262
:104000000DD07B68464A934207D07B68454A93426D
:1040100001D1042308E0072306E0032304E0022380
:1040200002E0012300E00023FA6902F0030292009B
:104030009340BA691343BB613549FB699B0802335E
:10404000BA6941F82320384B9B68BB613B69DB436D
:10405000BA691340BB613B685B6803F48013002BB3
:1040600003D0BA693B691343BB612F4ABB699360B4
:104070002D4BDB68BB613B69DB43BA691340BB6115
:104080003B685B6803F40013002B03D0BA693B69FB
:104090001343BB61244ABB69D360234B5B68BB619C
:1040A0003B69DB43BA691340BB613B685B6803F45F
:1040B0000033002B03D0BA693B691343BB611A4A32
:1040C000BB695360184B1B68BB613B69DB43BA6932
:1040D0001340BB613B685B6803F48033002B03D063
:1040E000BA693B691343BB610F4ABB691360FB6943
:1040F0000133FB61FB690F2B7FF6A2AE00BF00BF4F
:104100002437BD465DF8047B704700BF003802408D
:104110000038014000000240000402400008024054
:10412000000C024000100240003C014080B483B00B
:1041300000AF78600B467B8013467B707B78002B4A
:1041400003D07A887B689A6103E07B881A047B68D5
:104150009A6100BF0C37BD465DF8047B704780B4A0
:1041600085B000AF78600B467B807B685B69FB6045
:104170007A88FB6813401A04FB68D9437B880B409C
:104180001A437B689A6100BF1437BD465DF8047B13
:104190007047000080B582B000AF0346FB80084B3B
:1041A0005A69FB881340002B06D0054AFB885361EF
:1041B000FB88184600F006F800BF0837BD4680BDF2
:1041C000003C014080B483B000AF0346FB8000BFD9
:1041D0000C37BD465DF8047B7047000080B584B0A5
:1041E00000AF78607B68002B01D101232BE17B6855
:1041F00093F83D30DBB2002B06D17B68002283F8B8
:104200003C207868FDF7E4FD7B68242283F83D209C
:104210007B681B681A687B681B6822F001021A60C1
:104220007B681B681A687B681B6842F400421A604E
:104230007B681B681A687B681B6822F400421A605E
:1042400001F01EFCF8607B685B68814A934207D8E6
:10425000FB68804A934294BF01230023DBB206E04F
:10426000FB687D4A934294BF01230023DBB2002BFD
:1042700001D00123E7E0FB68784AA2FB03239B0CF3
:10428000BB607B681B685B6823F03F017B681B6831
:10429000BA680A435A607B681B681B6A23F03F01B7
:1042A0007B685B686A4A934202D8BB68013309E0C5
:1042B000BB684FF4967202FB03F3694AA2FB032327
:1042C0009B0901337A6812680B4313627B681B6891
:1042D000DB6923F44F4222F0FF027B685B685C4994
:1042E0008B4219D8FB68591E7B685B685B00B1FB89
:1042F000F3F3591C40F6FC730B40002B0AD0FB680B
:10430000591E7B685B685B00B1FBF3F30133C3F3B9
:104310000B0351E004234FE07B689B68002B11D115
:10432000FB68581E7B6859680B465B000B44B0FB6A
:10433000F3F30133C3F30B03002B0CBF0123002362
:10434000DBB212E0FB68581E7B6859680B469B0085
:104350000B4499000B44B0FBF3F30133C3F30B039D
:10436000002B0CBF01230023DBB2002B01D0012363
:1043700022E07B689B68002B0ED1FB68581E7B688F
:1043800059680B465B000B44B0FBF3F30133C3F3F6
:104390000B0343F400430FE0FB68581E7B68596829
:1043A0000B469B000B4499000B44B0FBF3F3013325
:1043B000C3F30B0343F44043796809681343CB61AB
:1043C0007B681B681B6823F0C0017B68DA697B6827
:1043D0001B6A1A437B681B680A431A607B681B6868
:1043E0009B6823F4034323F0FF037A6811697A681A
:1043F000D26811437A6812680B4393607B681B682C
:10440000DB6823F0FF017B685A697B689B691A436C
:104410007B681B680A43DA607B681B681A687B68E4
:104420001B6842F001021A607B6800221A647B68F4
:10443000202283F83D207B6800221A637B680022DB
:1044400083F83E20002318461037BD4680BD00BFCC
:10445000A08601007F841E00FF083D0083DE1B4311
:10446000D34D621080B588B002AFF860084611469F
:104470001A4603467B810B463B811346FB80FEF7C1
:104480008DFF7861FB6893F83D30DBB2202B40F064
:10449000D9807B690093192301226D49F86800F0E7
:1044A0008BFC0346002B01D00223CCE0FB6893F881
:1044B0003C30012B01D10223C5E0FB68012283F8C7
:1044C0003C20FB681B681B6803F00103012B07D02D
:1044D000FB681B681A68FB681B6842F001021A60DF
:1044E000FB681B681A68FB681B6822F400621A608C
:1044F000FB68212283F83D20FB68402283F83E20A0
:10450000FB6800221A64FB683A6A5A62FB68BA8C3C
:104510005A85FB685B8D9AB2FB681A85FB684D4A29
:10452000DA62F8883A8979897B690193BB6A0093DA
:104530000346F86800F0C2FA0346002B52D001236C
:1045400081E07A69B96AF86800F050FD0346002BF3
:104550000DD0FB681B6C042B07D1FB681B681A6825
:10456000FB681B6842F400721A6001236BE0FB6871
:104570005B6A1A78FB681B681A61FB685B6A5A1CE5
:10458000FB685A62FB681B8D013B9AB2FB681A8577
:10459000FB685B8D9BB2013B9AB2FB685A85FB6856
:1045A0001B685B6903F00403042B1BD1FB681B8DA4
:1045B000002B17D0FB685B6A1A78FB681B681A61CE
:1045C000FB685B6A5A1CFB685A62FB681B8D013BE7
:1045D0009AB2FB681A85FB685B8D9BB2013B9AB26D
:1045E000FB685A85FB681B8D002BAAD17A69B96AD2
:1045F000F86800F043FD0346002B0DD0FB681B6CF0
:10460000042B07D1FB681B681A68FB681B6842F41F
:1046100000721A60012316E0FB681B681A68FB68C9
:104620001B6842F400721A60FB68202283F83D2068
:10463000FB68002283F83E20FB68002283F83C20C0
:10464000002300E0022318461837BD4680BD00BF96
:10465000020010000000FFFF80B58CB002AFF860D0
:10466000084611461A4603467B810B463B8113469A
:10467000FB80FEF793FE7862FB6893F83D30DBB277
:10468000202B40F014827B6A0093192301227B497E
:10469000F86800F091FB0346002B01D0022307E2EB
:1046A000FB6893F83C30012B01D1022300E2FB6848
:1046B000012283F83C20FB681B681B6803F00103A0
:1046C000012B07D0FB681B681A68FB681B6842F067
:1046D00001021A60FB681B681A68FB681B6822F4F9
:1046E00000621A60FB68222283F83D20FB684022AA
:1046F00083F83E20FB6800221A64FB683A6B5A621A
:10470000FB68BA8E5A85FB685B8D9AB2FB681A8586
:10471000FB685B4ADA62F8883A8979897B6A019397
:10472000BB6B00930346F86800F05EFA0346002B6B
:1047300001D00123BCE1FB681B8D002B13D10023AA
:104740003B62FB681B685B693B62FB681B689B699B
:104750003B623B6AFB681B681A68FB681B6842F493
:1047600000721A6090E1FB681B8D012B1BD1FB6866
:104770001B681A68FB681B6822F480621A600023B9
:10478000FB61FB681B685B69FB61FB681B689B69DD
:10479000FB61FB69FB681B681A68FB681B6842F4D5
:1047A00000721A6070E1FB681B8D022B1BD1FB6845
:1047B0001B681A68FB681B6822F480621A60FB6839
:1047C0001B681A68FB681B6842F400621A600023C9
:1047D000BB61FB681B685B69BB61FB681B689B690D
:1047E000BB61BB6950E100237B61FB681B685B69AF
:1047F0007B61FB681B689B697B617B6944E1FB68AB
:104800001B8D032B00F2F180FB681B8D012B23D144
:104810007A6AB96BF86800F079FC0346002B01D086
:10482000012345E1FB681B681A69FB685B6AD2B229
:104830001A70FB685B6A5A1CFB685A62FB681B8D26
:10484000013B9AB2FB681A85FB685B8D9BB2013B0A
:104850009AB2FB685A8517E1FB681B8D022B4ED17B
:104860007B6A0093BB6B00220649F86800F0A4FA4B
:104870000346002B08D001231AE100BF02001000FC
:104880000000FFFF04000100FB681B681A68FB685A
:104890001B6842F400721A60FB681B681A69FB68A7
:1048A0005B6AD2B21A70FB685B6A5A1CFB685A6278
:1048B000FB681B8D013B9AB2FB681A85FB685B8D18
:1048C0009BB2013B9AB2FB685A85FB681B681A6968
:1048D000FB685B6AD2B21A70FB685B6A5A1CFB68A1
:1048E0005A62FB681B8D013B9AB2FB681A85FB6814
:1048F0005B8D9BB2013B9AB2FB685A85C4E07B6A30
:104900000093BB6B00226C49F86800F055FA03462F
:10491000002B01D00123CBE0FB681B681A68FB6801
:104920001B6822F480621A60FB681B681A69FB68C6
:104930005B6AD2B21A70FB685B6A5A1CFB685A62E7
:10494000FB681B8D013B9AB2FB681A85FB685B8D87
:104950009BB2013B9AB2FB685A857B6A0093BB6BA2
:1049600000225549F86800F027FA0346002B01D0D1
:1049700001239DE0FB681B681A68FB681B6842F412
:1049800000721A60FB681B681A69FB685B6AD2B226
:104990001A70FB685B6A5A1CFB685A62FB681B8DC5
:1049A000013B9AB2FB681A85FB685B8D9BB2013BA9
:1049B0009AB2FB685A85FB681B681A69FB685B6AD8
:1049C000D2B21A70FB685B6A5A1CFB685A62FB68B9
:1049D0001B8D013B9AB2FB681A85FB685B8D9BB20D
:1049E000013B9AB2FB685A854EE07A6AB96BF86867
:1049F00000F08CFB0346002B01D0012358E0FB683C
:104A00001B681A69FB685B6AD2B21A70FB685B6A42
:104A10005A1CFB685A62FB681B8D013B9AB2FB680B
:104A20001A85FB685B8D9BB2013B9AB2FB685A8585
:104A3000FB681B685B6903F00403042B24D1FB684B
:104A40001B8D032B07D1FB681B681A68FB681B686A
:104A500022F480621A60FB681B681A69FB685B6A53
:104A6000D2B21A70FB685B6A5A1CFB685A62FB6818
:104A70001B8D013B9AB2FB681A85FB685B8D9BB26C
:104A8000013B9AB2FB685A85FB681B8D002B7FF4B3
:104A9000B6AEFB68202283F83D20FB68002283F835
:104AA0003E20FB68002283F83C20002300E0022324
:104AB00018462837BD4680BD0400010080B588B087
:104AC00002AFF860084611461A4603467B810B4642
:104AD0003B811346FB80FB681B681A68FB681B68F8
:104AE00042F480721A607B6A00933B6A00224FF0A6
:104AF0000111F86800F060F90346002B0DD0FB6847
:104B00001B681B6803F48073B3F5807F03D1FB68D7
:104B10004FF400721A6403235FE07B89DBB21A460C
:104B2000FB681B6802F0FE021A617B6A3A6A2D4933
:104B3000F86800F0BBF90346002B01D001234CE0DC
:104B400000237B61FB681B685B697B61FB681B68FA
:104B50009B697B617B697A6A396AF86800F046FA7A
:104B60000346002B0DD0FB681B6C042B07D1FB68A0
:104B70001B681A68FB681B6842F400721A60012304
:104B80002BE0FB88012B05D13B89DAB2FB681B685F
:104B90001A6121E03B891B0A9BB2DAB2FB681B68F1
:104BA0001A617A6A396AF86800F020FA0346002B25
:104BB0000DD0FB681B6C042B07D1FB681B681A68BF
:104BC000FB681B6842F400721A60012305E03B8910
:104BD000DAB2FB681B681A61002318461837BD4615
:104BE00080BD00BF0200010080B588B002AFF86050
:104BF000084611461A4603467B810B463B81134605
:104C0000FB80FB681B681A68FB681B6842F48062C3
:104C10001A60FB681B681A68FB681B6842F48072A4
:104C20001A607B6A00933B6A00224FF00111F8681A
:104C300000F0C2F80346002B0DD0FB681B681B6810
:104C400003F48073B3F5807F03D1FB684FF40072E7
:104C50001A640323AAE07B89DBB21A46FB681B684F
:104C600002F0FE021A617B6A3A6A5249F86800F063
:104C70001DF90346002B01D0012397E000237B613F
:104C8000FB681B685B697B61FB681B689B697B61D8
:104C90007B697A6A396AF86800F0A8F90346002B44
:104CA0000DD0FB681B6C042B07D1FB681B681A68CE
:104CB000FB681B6842F400721A60012376E0FB88EF
:104CC000012B05D13B89DAB2FB681B681A6121E030
:104CD0003B891B0A9BB2DAB2FB681B681A617A6ACD
:104CE000396AF86800F082F90346002B0DD0FB68A2
:104CF0001B6C042B07D1FB681B681A68FB681B68D8
:104D000042F400721A60012350E03B89DAB2FB687A
:104D10001B681A617A6A396AF86800F067F9034615
:104D2000002B0DD0FB681B6C042B07D1FB681B68A4
:104D30001A68FB681B6842F400721A60012335E0B0
:104D4000FB681B681A68FB681B6842F480721A6073
:104D50007B6A00933B6A00224FF00111F86800F073
:104D60002BF80346002B0DD0FB681B681B6803F46F
:104D70008073B3F5807F03D1FB684FF400721A642F
:104D8000032313E07B89DBB243F00103DAB2FB6853
:104D90001B681A617B6A3A6A0649F86800F086F86F
:104DA0000346002B01D0012300E0002318461837EA
:104DB000BD4680BD0200010080B584B000AFF86040
:104DC000B9603B601346FB7148E03B68B3F1FF3FBD
:104DD00044D0FEF7E3FA0246BB69D31A3A689A4216
:104DE00002D33B68002B39D1BB681B0CDBB2012B13
:104DF0000DD1FB681B685B69DA43BB6813409BB24B
:104E0000002B0CBF01230023DBB21A460CE0FB6829
:104E10001B689B69DA43BB6813409BB2002B0CBF35
:104E200001230023DBB21A46FB799A4216D1FB68B4
:104E300000221A63FB68202283F83D20FB680022D1
:104E400083F83E20FB681B6C43F02002FB681A6469
:104E5000FB68002283F83C20012323E0BB681B0C85
:104E6000DBB2012B0DD1FB681B685B69DA43BB68C1
:104E700013409BB2002B0CBF01230023DBB21A4668
:104E80000CE0FB681B689B69DA43BB6813409BB26C
:104E9000002B0CBF01230023DBB21A46FB799A4298
:104EA00093D0002318461037BD4680BD80B584B02E
:104EB00000AFF860B9607A603B6071E0FB681B6826
:104EC0005B6903F48063B3F5806F23D1FB681B68D3
:104ED0001A68FB681B6842F400721A60FB681B6862
:104EE0006FF480625A61FB6800221A63FB6820221B
:104EF00083F83D20FB68002283F83E20FB681B6C92
:104F000043F00402FB681A64FB68002283F83C202B
:104F1000012367E07B68B3F1FF3F41D0FEF73EFA23
:104F200002463B68D31A7A689A4202D37B68002B08
:104F300036D1BB681B0CDBB2012B0CD1FB681B68A4
:104F40005B69DA43BB6813409BB2002B14BF01239B
:104F50000023DBB20BE0FB681B689B69DA43BB688C
:104F600013409BB2002B14BF01230023DBB2002BA4
:104F700016D0FB6800221A63FB68202283F83D20CC
:104F8000FB68002283F83E20FB681B6C43F0200284
:104F9000FB681A64FB68002283F83C20012321E0AF
:104FA000BB681B0CDBB2012B0CD1FB681B685B6977
:104FB000DA43BB6813409BB2002B14BF01230023CC
:104FC000DBB20BE0FB681B689B69DA43BB681340EC
:104FD0009BB2002B14BF01230023DBB2002B7FF414
:104FE0006DAF002318461037BD4680BD80B584B034
:104FF00000AFF860B9607A6034E0F86800F0E3F878
:105000000346002B01D0012334E0BB68B3F1FF3F1E
:1050100028D0FEF7C3F902467B68D31ABA689A42D1
:1050200002D3BB68002B1DD1FB681B685B6903F0D2
:105030008003802B16D0FB6800221A63FB682022B5
:1050400083F83D20FB68002283F83E20FB681B6C40
:1050500043F02002FB681A64FB68002283F83C20BE
:10506000012307E0FB681B685B6903F08003802B6A
:10507000C3D1002318461037BD4680BD80B584B02B
:1050800000AFF860B9607A6034E0F86800F09BF82F
:105090000346002B01D0012334E0BB68B3F1FF3F8E
:1050A00028D0FEF77BF902467B68D31ABA689A4289
:1050B00002D3BB68002B1DD1FB681B685B6903F042
:1050C0000403042B16D0FB6800221A63FB6820221D
:1050D00083F83D20FB68002283F83E20FB681B6CB0
:1050E00043F02002FB681A64FB68002283F83C202E
:1050F000012307E0FB681B685B6903F00403042BD2
:10510000C3D1002318461037BD4680BD80B584B09A
:1051100000AFF860B9607A6049E0FB681B685B69C2
:1051200003F01003102B19D1FB681B686FF01002FD
:105130005A61FB6800221A63FB68202283F83D2035
:10514000FB68002283F83E20FB681A6CFB681A6437
:10515000FB68002283F83C20012330E0FEF71EF9B3
:1051600002467B68D31ABA689A4202D3BB68002B06
:105170001DD1FB681B685B6903F04003402B16D010
:10518000FB6800221A63FB68202283F83D20FB683D
:10519000002283F83E20FB681B6C43F02002FB6872
:1051A0001A64FB68002283F83C20012307E0FB68B7
:1051B0001B685B6903F04003402BAED10023184607
:1051C0001037BD4680BD80B483B000AF78607B6887
:1051D0001B685B6903F48063B3F5806F1BD17B6848
:1051E0001B686FF480625A617B6800221A637B68D7
:1051F000202283F83D207B68002283F83E207B68D4
:105200001B6C43F004027B681A647B68002283F8FD
:105210003C20012300E0002318460C37BD465DF812
:10522000047B704780B586B000AF78607B68002B48
:1052300001D1012367E27B681B6803F00103002BA7
:1052400075D0884B9B6803F00C03042B0CD0854B66
:105250009B6803F00C03082B12D1824B5B6803F4AC
:105260008003B3F5800F0BD17E4B1B6803F4003332
:10527000002B5BD07B685B68002B57D1012342E297
:105280007B685B68B3F5803F06D1764B1B68754A37
:1052900043F4803313601DE07B685B68B3F5A02F97
:1052A0000CD1704B1B686F4A43F4802313606D4B25
:1052B0001B686C4A43F4803313600BE0694B1B6836
:1052C000684A23F480331360664B1B68654A23F4F5
:1052D000802313607B685B68002B13D0FEF75EF8B9
:1052E000386108E0FEF75AF802463B69D31A642B8E
:1052F00001D9032307E25B4B1B6803F40033002B47
:10530000F0D014E0FEF74AF8386108E0FEF746F8FE
:1053100002463B69D31A642B01D90323F3E1514BB5
:105320001B6803F40033002BF0D100E000BF7B6862
:105330001B6803F00203002B63D04A4B9B6803F009
:105340000C03002B0BD0474B9B6803F00C03082B7E
:105350001CD1444B5B6803F48003002B16D1414BF6
:105360001B6803F00203002B05D07B68DB68012B70
:1053700001D00123C7E13B4B1B6823F0F8027B6897
:105380001B69DB00374913430B603AE07B68DB683D
:10539000002B20D0344B01221A60FDF7FFFF38614B
:1053A00008E0FDF7FBFF02463B69D31A022B01D947
:1053B0000323A8E12B4B1B6803F00203002BF0D062
:1053C000284B1B6823F0F8027B681B69DB0025492A
:1053D00013430B6015E0244B00221A60FDF7DEFF3B
:1053E000386108E0FDF7DAFF02463B69D31A022B69
:1053F00001D9032387E11B4B1B6803F00203002B39
:10540000F0D17B681B6803F00803002B36D07B6863
:105410005B69002B16D0154B01221A60FDF7BEFF09
:10542000386108E0FDF7BAFF02463B69D31A022B48
:1054300001D9032367E10B4B5B6F03F00203002BE1
:10544000F0D01BE0094B00221A60FDF7A7FF38617E
:105450000EE0FDF7A3FF02463B69D31A022B07D9E2
:10546000032350E10038024000004742800E4742CB
:10547000884B5B6F03F00203002BEAD17B681B684B
:1054800003F00403002B00F097800023FB75814B91
:105490001B6C03F08053002B0FD10023BB607D4BAE
:1054A0001B6C7C4A43F0805313647A4B1B6C03F0F3
:1054B0008053BB60BB680123FB75774B1B6803F40B
:1054C0008073002B18D1744B1B68734A43F48073AC
:1054D0001360FDF763FF386108E0FDF75FFF0246E8
:1054E0003B69D31A022B01D903230CE16A4B1B68D9
:1054F00003F48073002BF0D07B689B68012B06D1EE
:10550000644B1B6F634A43F0010313671CE07B6825
:105510009B68052B0CD15F4B1B6F5E4A43F0040365
:1055200013675C4B1B6F5B4A43F0010313670BE08F
:10553000584B1B6F574A23F001031367554B1B6FE2
:10554000544A23F0040313677B689B68002B15D033
:10555000FDF724FF38610AE0FDF720FF02463B69B2
:10556000D31A41F28832934201D90323CBE0494B4D
:105570001B6F03F00203002BEED014E0FDF70EFFCB
:1055800038610AE0FDF70AFF02463B69D31A41F28F
:105590008832934201D90323B5E03E4B1B6F03F0E1
:1055A0000203002BEED1FB7D012B05D1394B1B6C87
:1055B000384A23F0805313647B689B69002B00F00A
:1055C000A180344B9B6803F00C03082B5CD07B68F4
:1055D0009B69022B41D1314B00221A60FDF7DEFEA0
:1055E000386108E0FDF7DAFE02463B69D31A022B68
:1055F00001D9032387E0274B1B6803F00073002BBE
:10560000F0D17B68DA697B681B6A1A437B685B6A46
:105610009B011A437B689B6A5B08013B1B041A438E
:105620007B68DB6A1B061B4913434B601B4B012243
:105630001A60FDF7B3FE386108E0FDF7AFFE0246E1
:105640003B69D31A022B01D903235CE0114B1B6881
:1056500003F00073002BF0D054E0104B00221A60CE
:10566000FDF79CFE386108E0FDF798FE02463B69B5
:10567000D31A022B01D9032345E0064B1B6803F024
:105680000073002BF0D13DE07B689B69012B07D1B3
:10569000012338E0003802400070004060004742BB
:1056A0001B4B5B68FB607B689B69012B28D0FB6808
:1056B00003F480027B68DB699A4221D1FB6803F026
:1056C0003F027B681B6A9A421AD1FA6847F6C07398
:1056D00013407A68526A9201934211D1FB6803F435
:1056E00040327B689B6A5B08013B1B049A4207D1EE
:1056F000FB6803F070627B68DB6A1B069A4201D08C
:10570000012300E0002318461837BD4680BD00BFC6
:105710000038024080B584B000AF786039607B68A3
:10572000002B01D10123CCE0684B1B6803F0070379
:105730003A689A420CD9654B3A68D2B21A70634BF8
:105740001B6803F007033A689A4201D00123B8E0CE
:105750007B681B6803F00203002B20D07B681B686A
:1057600003F00403002B05D0594B9B68584A43F4BF
:10577000E05393607B681B6803F00803002B05D09F
:10578000534B9B68524A43F460439360504B9B6871
:1057900023F0F0027B689B684D4913438B607B6864
:1057A0001B6803F00103002B44D07B685B68012B6E
:1057B00007D1474B1B6803F40033002B19D1012399
:1057C0007FE07B685B68022B03D07B685B68032B00
:1057D00007D13F4B1B6803F00073002B09D1012355
:1057E0006FE03B4B1B6803F00203002B01D1012348
:1057F00067E0374B9B6823F003027B685B683449A2
:1058000013438B60FDF7CAFDF8600AE0FDF7C6FDA3
:105810000246FB68D31A41F28832934201D903232E
:105820004FE02B4B9B6803F00C027B685B689B008E
:105830009A42EBD1254B1B6803F007033A689A4262
:105840000CD2224B3A68D2B21A70204B1B6803F07C
:1058500007033A689A4201D0012332E07B681B6853
:1058600003F00403002B08D0194B9B6823F4E0528B
:105870007B68DB68164913438B607B681B6803F009
:105880000803002B09D0124B9B6823F460427B680D
:105890001B69DB000E4913438B6000F021F80246C0
:1058A0000B4B9B681B0903F00F030A49CB5C22FAE0
:1058B00003F3094A1360094B1B681846FDF72AFDDC
:1058C000002318461037BD4680BD00BF003C024093
:1058D0000038024030BD0008280000202C000020C5
:1058E0002DE9B04F90B000AF00237B630023FB6332
:1058F00000233B630023BB63584B9B6803F00C03FE
:10590000082B0DD0082B00F2A080002B02D0042B16
:1059100003D09AE0524BBB639AE0524BBB6397E0D3
:105920004E4B5B6803F03F037B634C4B5B6803F4B7
:105930008003002B27D0494B5B689B0900223B6208
:105940007A623B6AC3F308000021464B03FB01F275
:10595000002300FB03F31344424AA0FB0221F96237
:10596000BA62FA6A1344FB627B6B0022BB61FA6184
:10597000D7E90623D7E90A01FBF71EF902460B46D1
:105980001346FB6353E0354B5B689B0900223B6188
:105990007A613B69C3F3080A4FF0000B52465B463D
:1059A0004FF000004FF00001590141EAD26150016F
:1059B00002460B46B2EB0A0863EB0B094FF00002FC
:1059C0004FF000034FEA891343EA98634FEA8812C5
:1059D000B2EB080463EB09054FF000024FF000033F
:1059E000EB0043EA5473E20014461D4614EB0A032D
:1059F0003B6045EB0B037B604FF000024FF0000370
:105A0000D7E9004529468B02214643EA91532146B6
:105A10008A02104619467B6B0022BB60FA60D7E908
:105A20000223FBF7C9F802460B461346FB630B4BF8
:105A30005B681B0C03F0030301335B003B63FA6BF1
:105A40003B6BB2FBF3F3BB6302E0054BBB6300BFF0
:105A5000BB6B18464037BD46BDE8B08F00380240EA
:105A60000024F40040787D0180B400AF034B1B6834
:105A70001846BD465DF8047B704700BF2800002033
:105A800080B500AFFFF7F0FF0246054B9B689B0A0D
:105A900003F007030349CB5C22FA03F3184680BDE9
:105AA0000038024040BD000880B500AFFFF7DCFFC2
:105AB0000246054B9B685B0B03F007030349CB5C75
:105AC00022FA03F3184680BD0038024040BD0008AA
:105AD00080B582B000AF78607B68002B01D10123D4
